{
  "address": "0x9029251828f2B4ECeE5d543186C5541ae066EbCB",
  "abi": [
    {
      "inputs": [
        {
          "internalType": "address",
          "name": "priceFeedAddress",
          "type": "address"
        }
      ],
      "stateMutability": "nonpayable",
      "type": "constructor"
    },
    {
      "inputs": [],
      "name": "FundMe__NotOwner",
      "type": "error"
    },
    {
      "inputs": [],
      "name": "MINIMUM_USD",
      "outputs": [
        {
          "internalType": "uint256",
          "name": "",
          "type": "uint256"
        }
      ],
      "stateMutability": "view",
      "type": "function"
    },
    {
      "inputs": [],
      "name": "cheaperWithdraw",
      "outputs": [],
      "stateMutability": "payable",
      "type": "function"
    },
    {
      "inputs": [],
      "name": "fund",
      "outputs": [],
      "stateMutability": "payable",
      "type": "function"
    },
    {
      "inputs": [
        {
          "internalType": "address",
          "name": "funder",
          "type": "address"
        }
      ],
      "name": "getAdressToAmountFunded",
      "outputs": [
        {
          "internalType": "uint256",
          "name": "",
          "type": "uint256"
        }
      ],
      "stateMutability": "view",
      "type": "function"
    },
    {
      "inputs": [
        {
          "internalType": "uint256",
          "name": "index",
          "type": "uint256"
        }
      ],
      "name": "getFunders",
      "outputs": [
        {
          "internalType": "address",
          "name": "",
          "type": "address"
        }
      ],
      "stateMutability": "view",
      "type": "function"
    },
    {
      "inputs": [],
      "name": "getOwner",
      "outputs": [
        {
          "internalType": "address",
          "name": "",
          "type": "address"
        }
      ],
      "stateMutability": "view",
      "type": "function"
    },
    {
      "inputs": [],
      "name": "getPriceFeed",
      "outputs": [
        {
          "internalType": "contract AggregatorV3Interface",
          "name": "",
          "type": "address"
        }
      ],
      "stateMutability": "view",
      "type": "function"
    },
    {
      "inputs": [
        {
          "internalType": "address",
          "name": "",
          "type": "address"
        }
      ],
      "name": "s_addressToAmountFunded",
      "outputs": [
        {
          "internalType": "uint256",
          "name": "",
          "type": "uint256"
        }
      ],
      "stateMutability": "view",
      "type": "function"
    },
    {
      "inputs": [],
      "name": "withdraw",
      "outputs": [],
      "stateMutability": "nonpayable",
      "type": "function"
    }
  ],
  "transactionHash": "0xdefc63fb45c01e647a10b1c506d2c3911442f99ac11c7c9dff34283495bfecfa",
  "args": [
    "0xd4a33860578de61dbabdc8bfdb98fd742fa7028e"
  ],
  "numDeployments": 2,
  "solcInputHash": "e2fc52d95336bb03c27df691bba68f79",
  "bytecode": "0x60a06040523480156200001157600080fd5b506040516200160738038062001607833981810160405281019062000037919062000120565b3373ffffffffffffffffffffffffffffffffffffffff1660808173ffffffffffffffffffffffffffffffffffffffff1660601b8152505080600260006101000a81548173ffffffffffffffffffffffffffffffffffffffff021916908373ffffffffffffffffffffffffffffffffffffffff1602179055505062000152565b600080fd5b600073ffffffffffffffffffffffffffffffffffffffff82169050919050565b6000620000e882620000bb565b9050919050565b620000fa81620000db565b81146200010657600080fd5b50565b6000815190506200011a81620000ef565b92915050565b600060208284031215620001395762000138620000b6565b5b6000620001498482850162000109565b91505092915050565b60805160601c6114886200017f60003960008181610250015281816104de01526106ef01526114886000f3fe6080604052600436106100865760003560e01c8063893d20e811610059578063893d20e8146101475780639a59cd9e146101725780639e87a5cd146101af578063b60d4288146101da578063be2693f0146101e457610086565b80631bf6132d1461008b5780633a7b6c74146100c85780633ccfd60b146101055780636b69a5921461011c575b600080fd5b34801561009757600080fd5b506100b260048036038101906100ad9190610cd8565b6101ee565b6040516100bf9190610d1e565b60405180910390f35b3480156100d457600080fd5b506100ef60048036038101906100ea9190610d65565b610206565b6040516100fc9190610da1565b60405180910390f35b34801561011157600080fd5b5061011a61024e565b005b34801561012857600080fd5b506101316104cd565b60405161013e9190610d1e565b60405180910390f35b34801561015357600080fd5b5061015c6104da565b6040516101699190610da1565b60405180910390f35b34801561017e57600080fd5b5061019960048036038101906101949190610cd8565b610502565b6040516101a69190610d1e565b60405180910390f35b3480156101bb57600080fd5b506101c461054a565b6040516101d19190610e1b565b60405180910390f35b6101e2610574565b005b6101ec6106ed565b005b60006020528060005260406000206000915090505481565b60006001828154811061021c5761021b610e36565b5b9060005260206000200160009054906101000a900473ffffffffffffffffffffffffffffffffffffffff169050919050565b7f000000000000000000000000000000000000000000000000000000000000000073ffffffffffffffffffffffffffffffffffffffff163373ffffffffffffffffffffffffffffffffffffffff16146102d3576040517f579610db00000000000000000000000000000000000000000000000000000000815260040160405180910390fd5b60005b6001805490508110156103bd576000600182815481106102f9576102f8610e36565b5b9060005260206000200160009054906101000a900473ffffffffffffffffffffffffffffffffffffffff1690506103656040518060400160405280601981526020017f496e646578206f66207468652046756e6465722069732025730000000000000081525083610991565b60008060008373ffffffffffffffffffffffffffffffffffffffff1673ffffffffffffffffffffffffffffffffffffffff168152602001908152602001600020819055505080806103b590610e94565b9150506102d6565b50600067ffffffffffffffff8111156103d9576103d8610edd565b5b6040519080825280602002602001820160405280156104075781602001602082028036833780820191505090505b506001908051906020019061041d929190610bce565b5060003373ffffffffffffffffffffffffffffffffffffffff164760405161044490610f3d565b60006040518083038185875af1925050503d8060008114610481576040519150601f19603f3d011682016040523d82523d6000602084013e610486565b606091505b50509050806104ca576040517f08c379a00000000000000000000000000000000000000000000000000000000081526004016104c190610faf565b60405180910390fd5b50565b6802b5e3af16b188000081565b60007f0000000000000000000000000000000000000000000000000000000000000000905090565b60008060008373ffffffffffffffffffffffffffffffffffffffff1673ffffffffffffffffffffffffffffffffffffffff168152602001908152602001600020549050919050565b6000600260009054906101000a900473ffffffffffffffffffffffffffffffffffffffff16905090565b6802b5e3af16b18800006105b3600260009054906101000a900473ffffffffffffffffffffffffffffffffffffffff1634610a2d90919063ffffffff16565b10156105f4576040517f08c379a00000000000000000000000000000000000000000000000000000000081526004016105eb9061101b565b60405180910390fd5b6106336040518060400160405280601481526020017f5472616e7366657272696e672066726f6d20257300000000000000000000000081525033610a69565b346000803373ffffffffffffffffffffffffffffffffffffffff1673ffffffffffffffffffffffffffffffffffffffff1681526020019081526020016000206000828254610681919061103b565b925050819055506001339080600181540180825580915050600190039060005260206000200160009091909190916101000a81548173ffffffffffffffffffffffffffffffffffffffff021916908373ffffffffffffffffffffffffffffffffffffffff160217905550565b7f000000000000000000000000000000000000000000000000000000000000000073ffffffffffffffffffffffffffffffffffffffff163373ffffffffffffffffffffffffffffffffffffffff1614610772576040517f579610db00000000000000000000000000000000000000000000000000000000815260040160405180910390fd5b600060018054806020026020016040519081016040528092919081815260200182805480156107f657602002820191906000526020600020905b8160009054906101000a900473ffffffffffffffffffffffffffffffffffffffff1673ffffffffffffffffffffffffffffffffffffffff16815260200190600101908083116107ac575b5050505050905060005b815181101561088057600082828151811061081e5761081d610e36565b5b6020026020010151905060008060008373ffffffffffffffffffffffffffffffffffffffff1673ffffffffffffffffffffffffffffffffffffffff1681526020019081526020016000208190555050808061087890610e94565b915050610800565b50600067ffffffffffffffff81111561089c5761089b610edd565b5b6040519080825280602002602001820160405280156108ca5781602001602082028036833780820191505090505b50600190805190602001906108e0929190610bce565b5060003373ffffffffffffffffffffffffffffffffffffffff164760405161090790610f3d565b60006040518083038185875af1925050503d8060008114610944576040519150601f19603f3d011682016040523d82523d6000602084013e610949565b606091505b505090508061098d576040517f08c379a000000000000000000000000000000000000000000000000000000000815260040161098490610faf565b60405180910390fd5b5050565b610a2982826040516024016109a7929190611119565b6040516020818303038152906040527fb60e72cc000000000000000000000000000000000000000000000000000000007bffffffffffffffffffffffffffffffffffffffffffffffffffffffff19166020820180517bffffffffffffffffffffffffffffffffffffffffffffffffffffffff8381831617835250505050610b05565b5050565b600080610a3983610b2e565b90506000670de0b6b3a76400008583610a529190611149565b610a5c91906111d2565b9050809250505092915050565b610b018282604051602401610a7f929190611203565b6040516020818303038152906040527f319af333000000000000000000000000000000000000000000000000000000007bffffffffffffffffffffffffffffffffffffffffffffffffffffffff19166020820180517bffffffffffffffffffffffffffffffffffffffffffffffffffffffff8381831617835250505050610b05565b5050565b60008151905060006a636f6e736f6c652e6c6f679050602083016000808483855afa5050505050565b6000808273ffffffffffffffffffffffffffffffffffffffff1663feaf968c6040518163ffffffff1660e01b815260040160a06040518083038186803b158015610b7757600080fd5b505afa158015610b8b573d6000803e3d6000fd5b505050506040513d601f19601f82011682018060405250810190610baf91906112c0565b5050509150506402540be40081610bc6919061133b565b915050919050565b828054828255906000526020600020908101928215610c47579160200282015b82811115610c465782518260006101000a81548173ffffffffffffffffffffffffffffffffffffffff021916908373ffffffffffffffffffffffffffffffffffffffff16021790555091602001919060010190610bee565b5b509050610c549190610c58565b5090565b5b80821115610c71576000816000905550600101610c59565b5090565b600080fd5b600073ffffffffffffffffffffffffffffffffffffffff82169050919050565b6000610ca582610c7a565b9050919050565b610cb581610c9a565b8114610cc057600080fd5b50565b600081359050610cd281610cac565b92915050565b600060208284031215610cee57610ced610c75565b5b6000610cfc84828501610cc3565b91505092915050565b6000819050919050565b610d1881610d05565b82525050565b6000602082019050610d336000830184610d0f565b92915050565b610d4281610d05565b8114610d4d57600080fd5b50565b600081359050610d5f81610d39565b92915050565b600060208284031215610d7b57610d7a610c75565b5b6000610d8984828501610d50565b91505092915050565b610d9b81610c9a565b82525050565b6000602082019050610db66000830184610d92565b92915050565b6000819050919050565b6000610de1610ddc610dd784610c7a565b610dbc565b610c7a565b9050919050565b6000610df382610dc6565b9050919050565b6000610e0582610de8565b9050919050565b610e1581610dfa565b82525050565b6000602082019050610e306000830184610e0c565b92915050565b7f4e487b7100000000000000000000000000000000000000000000000000000000600052603260045260246000fd5b7f4e487b7100000000000000000000000000000000000000000000000000000000600052601160045260246000fd5b6000610e9f82610d05565b91507fffffffffffffffffffffffffffffffffffffffffffffffffffffffffffffffff821415610ed257610ed1610e65565b5b600182019050919050565b7f4e487b7100000000000000000000000000000000000000000000000000000000600052604160045260246000fd5b600081905092915050565b50565b6000610f27600083610f0c565b9150610f3282610f17565b600082019050919050565b6000610f4882610f1a565b9150819050919050565b600082825260208201905092915050565b7f43616c6c206661696c6564000000000000000000000000000000000000000000600082015250565b6000610f99600b83610f52565b9150610fa482610f63565b602082019050919050565b60006020820190508181036000830152610fc881610f8c565b9050919050565b7f596f75206e65656420746f207370656e64206d6f726520455448210000000000600082015250565b6000611005601b83610f52565b915061101082610fcf565b602082019050919050565b6000602082019050818103600083015261103481610ff8565b9050919050565b600061104682610d05565b915061105183610d05565b9250827fffffffffffffffffffffffffffffffffffffffffffffffffffffffffffffffff0382111561108657611085610e65565b5b828201905092915050565b600081519050919050565b60005b838110156110ba57808201518184015260208101905061109f565b838111156110c9576000848401525b50505050565b6000601f19601f8301169050919050565b60006110eb82611091565b6110f58185610f52565b935061110581856020860161109c565b61110e816110cf565b840191505092915050565b6000604082019050818103600083015261113381856110e0565b90506111426020830184610d0f565b9392505050565b600061115482610d05565b915061115f83610d05565b9250817fffffffffffffffffffffffffffffffffffffffffffffffffffffffffffffffff048311821515161561119857611197610e65565b5b828202905092915050565b7f4e487b7100000000000000000000000000000000000000000000000000000000600052601260045260246000fd5b60006111dd82610d05565b91506111e883610d05565b9250826111f8576111f76111a3565b5b828204905092915050565b6000604082019050818103600083015261121d81856110e0565b905061122c6020830184610d92565b9392505050565b600069ffffffffffffffffffff82169050919050565b61125281611233565b811461125d57600080fd5b50565b60008151905061126f81611249565b92915050565b6000819050919050565b61128881611275565b811461129357600080fd5b50565b6000815190506112a58161127f565b92915050565b6000815190506112ba81610d39565b92915050565b600080600080600060a086880312156112dc576112db610c75565b5b60006112ea88828901611260565b95505060206112fb88828901611296565b945050604061130c888289016112ab565b935050606061131d888289016112ab565b925050608061132e88828901611260565b9150509295509295909350565b600061134682611275565b915061135183611275565b9250827f7fffffffffffffffffffffffffffffffffffffffffffffffffffffffffffffff04821160008413600084131616156113905761138f610e65565b5b817f800000000000000000000000000000000000000000000000000000000000000005831260008412600084131616156113cd576113cc610e65565b5b827f8000000000000000000000000000000000000000000000000000000000000000058212600084136000841216161561140a57611409610e65565b5b827f7fffffffffffffffffffffffffffffffffffffffffffffffffffffffffffffff058212600084126000841216161561144757611446610e65565b5b82820290509291505056fea264697066735822122090b5bc7fa8e8ee7f56c99a76505be255c81cc0a7d7ea9510846bb642c7d6927364736f6c63430008080033",
  "devdoc": {
    "author": "Jatin Prakash Choubey",
    "kind": "dev",
    "methods": {},
    "title": "A contract for crowd funding",
    "version": 1
  },
  "userdoc": {
    "kind": "user",
    "methods": {},
    "notice": "This function funds this contract",
    "version": 1
  },
  "storageLayout": {
    "storage": [
      {
        "astId": 60,
        "contract": "contracts/FundMe.sol:FundMe",
        "label": "s_addressToAmountFunded",
        "offset": 0,
        "slot": "0",
        "type": "t_mapping(t_address,t_uint256)"
      },
      {
        "astId": 63,
        "contract": "contracts/FundMe.sol:FundMe",
        "label": "s_funders",
        "offset": 0,
        "slot": "1",
        "type": "t_array(t_address)dyn_storage"
      },
      {
        "astId": 87,
        "contract": "contracts/FundMe.sol:FundMe",
        "label": "s_priceFeed",
        "offset": 0,
        "slot": "2",
        "type": "t_contract(AggregatorV3Interface)45"
      }
    ],
    "types": {
      "t_address": {
        "encoding": "inplace",
        "label": "address",
        "numberOfBytes": "20"
      },
      "t_array(t_address)dyn_storage": {
        "base": "t_address",
        "encoding": "dynamic_array",
        "label": "address[]",
        "numberOfBytes": "32"
      },
      "t_contract(AggregatorV3Interface)45": {
        "encoding": "inplace",
        "label": "contract AggregatorV3Interface",
        "numberOfBytes": "20"
      },
      "t_mapping(t_address,t_uint256)": {
        "encoding": "mapping",
        "key": "t_address",
        "label": "mapping(address => uint256)",
        "numberOfBytes": "32",
        "value": "t_uint256"
      },
      "t_uint256": {
        "encoding": "inplace",
        "label": "uint256",
        "numberOfBytes": "32"
      }
    }
  }
}